:030000000209559D
:0C095500787FE4F6D8FD758107020800E9
:1008000012085B12083E12087412083E12088D127C
:10081000083E1208A612083E1208BF12083E12082F
:10082000D812083E1208F112083E12090A12083EB8
:0E08300012092312083E12093C12083E80C233
:10083E00E4FFFEE4FDFC0DBD00010CED64644C70A4
:0C084E00F50FBF00010EBE0BEABFB8E7BB
:01085A00227B
:10085B00D291D292D293D294C295D296D297C2A66B
:09086B00D2A1D2A5D2A3D2A4228D
:10087400C291D292C293D294D295C296C297D2A672
:09088400C2A1D2A5D2A3D2A42284
:10088D00C291D292C293D294C295D296C297D2A659
:09089D00C2A1D2A5D2A3D2A4226B
:1008A600D291D292D293C294D295C296D297C2A630
:0908B600D2A1D2A5D2A3D2A42242
:1008BF00D291C292D293D294C295D296D297D2A607
:0908CF00D2A1C2A5C2A3D2A42249
:1008D800D291D292D293D294D295D296C297C2A6EE
:0908E800D2A1D2A5D2A3D2A42210
:1008F100D291D292D293D294C295C296D297D2A6D5
:09090100D2A1D2A5D2A3D2A422F6
:10090A00D291D292D293C294C295D296C297C2A6DB
:09091A00D2A1C2A5C2A3D2A422FD
:10092300D291D292D293D294D295D296D297C2A692
:09093300D2A1D2A5D2A3D2A422C4
:10093C00D291D292D293D294D295D296C297C2A689
:09094C00D2A1D2A5D2A3D2A422AB
:00000001FF
